:100000000C9474000C9408010C9408010C940801E1
:100010000C9408010C9408010C9408010C9408013C
:100020000C9408010C9408010C9408010C9408012C
:100030000C9408010C9408010C9408010C9408011C
:100040000C9408010C9408010C9408010C9408010C
:100050000C9408010C9408010C9408010C940801FC
:100060000C9408010C9408010C9408010C940801EC
:100070000C9408010C9408010C9408010C940801DC
:100080000C9408010C9408010C9408010C940801CC
:100090000C9408010C9408010C9408010C940801BC
:1000A0000C9408010C9408010C9408010C940801AC
:1000B0000C9408010C9408010C9408010C9408019C
:1000C0000C9408010C9408010C9408010C9408018C
:1000D0000C9408010C9408010C9408010C9408017C
:1000E0000C9408010C94080111241FBECFEFCDBF62
:1000F000DFE7DEBF0E9480000C947E00F894FFCF03
:100100000E94CB000E94E300E0E4F4E088E0878BEB
:1001100080E4808384811482C0E0D0E000E414E0B5
:100120006894772476F80F2EF0E3EF2EFBE0FF2E95
:10013000F02D0F2E88248A94F0EC9F2EF02DAA2407
:10014000AA946894BB24B7F8CC24CA946894DD249C
:10015000D6F80E94F8008823E1F32196F80177820F
:10016000C330D10531F4F701C486D586C0E0D0E0B4
:100170000DC0C230D10521F4F701A486B58606C0B2
:10018000C130D10519F4F701848695860E94F800E4
:060190008111FCCFDECF5F
:10019600E0E4F4E0808180648083848180648483E9
:1001A60088ED91E084BF909360002BE030E084BF3F
:1001B60020936100E0E6F0E0838180FDFDCF0895A5
:1001C600E0E3FBE0808181608083808182608083C0
:1001D6001092E705818180618183818187608183B7
:0A01E6008FEF90E884879587089555
:1001F0008091480490E08058910942F48CEC90E0A2
:100200000197F1F700C0000081E0089580E00895B3
:040210000C9400004A
:00000001FF
